:100000000C9462000C948A000C948A000C948A0070
:100010000C948A000C948A000C948A000C948A0038
:100020000C948A000C948A000C948A000C948A0028
:100030000C948A000C948A000C948A000C948A0018
:100040000C9405010C948A000C943E020C948A00D6
:100050000C948A000C948A000C948A000C948A00F8
:100060000C948A000C948A000000000024002700F1
:100070002A0000000000250028002B0000000000DE
:1000800023002600290004040404040404040202DA
:100090000202020203030303030301020408102007
:1000A0004080010204081020010204081020000012
:1000B0000007000201000003040600000000000029
:1000C0000000870311241FBECFEFD8E0DEBFCDBFF5
:1000D00011E0A0E0B1E0E4EAFAE002C005900D9280
:1000E000A431B107D9F711E0A4E1B1E001C01D923C
:1000F000A83BB107E1F710E0C4ECD0E004C02297C0
:10010000FE010E944C05C23CD107C9F70E94FE00C7
:100110000C9450050C94000083E00E94EF01909332
:1001200015018093140184E00E94EF019093170160
:100130008093160180E00E94B101BC0185EA91E044
:100140000E94BF0485EA91E060E071E00E94F8033C
:1001500081E00E94B101BC0185EA91E00E94BF04E8
:1001600085EA91E062E071E00E94F80382E00E947B
:10017000B101BC0185EA91E00E94BF0485EA91E0EB
:1001800064E071E00E94F8038091140190911501E0
:10019000019729F485EA91E060E070E00FC080915A
:1001A000160190911701019729F485EA91E061E029
:1001B00070E004C085EA91E062E070E00E94BF0454
:1001C00085EA91E066E071E00E94F80365E070E086
:1001D00080E090E00E944D01089585EA91E040E0C2
:1001E00052EC61E070E00E947B0283E060E00E94DC
:1001F000CF0184E060E00E94CF0108950E94770162
:100200000E94ED000E948C00FDCF1F920F920FB64E
:100210000F9211242F933F938F939F93AF93BF938C
:1002200080911C0190911D01A0911E01B0911F01B0
:10023000309120010196A11DB11D232F2D5F2D3777
:1002400020F02D570196A11DB11D20932001809310
:100250001C0190931D01A0931E01B0931F0180917A
:10026000180190911901A0911A01B0911B010196FA
:10027000A11DB11D8093180190931901A0931A013B
:10028000B0931B01BF91AF919F918F913F912F919F
:100290000F900FBE0F901F901895EF92FF920F9343
:1002A0001F937B018C018FB7F89440911C015091F2
:1002B0001D0160911E0170911F018FBF2FB7F8942F
:1002C00080911C0190911D01A0911E01B0911F0110
:1002D0002FBF841B950BA60BB70BE816F9060A0770
:1002E0001B0760F71F910F91FF90EF90089578948E
:1002F00084B5826084BD84B5816084BD85B582602B
:1003000085BD85B5816085BDEEE6F0E080818160C8
:100310008083E1E8F0E08081826080838081816079
:100320008083E0E8F0E0808181608083E1EBF0E0B1
:10033000808184608083E0EBF0E080818160808355
:10034000EAE7F0E08081846080838081826080833E
:100350008081816080838081806880831092C10069
:1003600008958F70909108019295990F990F907C44
:10037000982B90937C0080917A00806480937A001F
:1003800080917A0086FDFCCF209178004091790021
:10039000942F80E030E0282B392BC9010895282FB5
:1003A00030E0C90186569F4FFC0194912A573F4F78
:1003B000F9018491882391F0E82FF0E0EE0FFF1F00
:1003C000E859FF4FA591B491662329F48C9190953B
:1003D00089238C9308958C91892B8C930895682F91
:1003E00070E0CB0182559F4FFC012491CB018656D2
:1003F0009F4FFC0144916A577F4FFB0194919923D1
:1004000019F420E030E038C0222331F1233021F408
:10041000809180008F7705C0243031F48091800076
:100420008F7D8093800018C0213019F484B58F77B8
:1004300004C0223021F484B58F7D84BD0DC02630E8
:1004400021F48091B0008F7705C0273029F4809186
:10045000B0008F7D8093B000892F90E0880F991FA6
:1004600084589F4FFC01A591B4918C9120E030E01D
:10047000842311F021E030E0C90108951F920F920A
:100480000FB60F9211242F933F934F935F936F9367
:100490007F938F939F93AF93BF93EF93FF9340917D
:1004A000C600E091A101F091A201CF01019660E8A0
:1004B00070E00E94E6049C018091A3019091A40148
:1004C0002817390739F0EF5DFE4F40833093A201C2
:1004D0002093A101FF91EF91BF91AF919F918F91D7
:1004E0007F916F915F914F913F912F910F900FBE30
:1004F0000F901F9018955F926F927F928F929F92AC
:10050000AF92BF92CF92DF92EF92FF920F931F9321
:10051000CF93DF93EC013A014B01413482E4580759
:100520008FE0680780E078070CF07FC060E874E82F
:100530008EE190E0A40193010E941B052150304000
:1005400040405040CA01B90122E030E040E050E0B4
:100550000E941B0559016A01A6019501209530955D
:100560004095509594E0220F331F441F551F9A95D4
:10057000D1F760E074E284EF90E00E941B05CA01AD
:10058000B9012FEF30E040E050E00E94C704A40121
:1005900093010E941B05C90181509F4F181619062F
:1005A0001CF4522E5A9403C055245394521A60E0FE
:1005B00079E08DE390E0A40193010E941B05215096
:1005C000304040405040CA01B90122E030E040E0F4
:1005D00050E00E941B05209530954095509583E092
:1005E000220F331F441F551F8A95D1F760E074E234
:1005F00084EF90E00E941B05CA01B9012FEF30E0A3
:1006000040E050E00E94C704A40193010E941B0532
:10061000C90181509F4F181619061CF4822F815072
:1006200002C081E0821B851500F5E885F98581E02F
:1006300090E00A8802C0880F991F0A94E2F780832D
:1006400060E079E08DE390E0A40193010E941B0536
:100650002150304040405040CA01B90122E030E012
:1006600040E050E00E941B0504C0E885F985108237
:100670009501EC81FD813083EE81FF812083EA8545
:10068000FB85208141E050E0CA010E8402C0880F42
:10069000991F0A94E2F7282B2083EA85FB852081A5
:1006A000CA010F8402C0880F991F0A94E2F7282B11
:1006B0002083EA85FB858081088802C0440F551F8E
:1006C0000A94E2F7842B8083DF91CF911F910F91E1
:1006D000FF90EF90DF90CF90BF90AF909F908F9062
:1006E0007F906F905F900895FC01A085B18521896E
:1006F0008C9190E0022E02C0959587950A94E2F7BE
:1007000080FFF6CF0484F585E02D608308958DE0A9
:1007100091E09093A6018093A50181E291E09093EE
:10072000A8018093A70185EC90E09093AA018093A3
:10073000A90184EC90E09093AC018093AB0180EC34
:1007400090E09093AE018093AD0181EC90E09093A6
:10075000B0018093AF0186EC90E09093B20180935A
:10076000B10184E08093B30183E08093B40187E01A
:100770008093B50185E08093B60181E08093B70155
:1007800008950F931F93CF93DF938C01EB0109C062
:100790002196D801ED91FC910190F081E02DC801E6
:1007A000099568816623A1F7DF91CF911F910F9181
:1007B0000895EF92FF920F931F93CF93DF938C01D5
:1007C0007B01EA010CC0D7016D917D01D801ED914B
:1007D000FC910190F081E02DC801099521972097A7
:1007E00091F7DF91CF911F910F91FF90EF900895B6
:1007F000DC01ED91FC910280F381E02D09950895D3
:100800002F923F924F925F926F927F928F929F9220
:10081000AF92BF92CF92DF92EF92FF920F931F930E
:10082000DF93CF93CDB7DEB7A0970FB6F894DEBFB6
:100830000FBECDBF1C016A017B0141155105610549
:10084000710549F4DC01ED91FC910190F081E02DFE
:1008500060E3099554C0882499245401422E5524FC
:100860006624772401E010E00C0F1D1F080D191DF0
:10087000C701B601A30192010E94F904F801608347
:100880000894811C911CA11CB11CC701B601A301D5
:1008900092010E94F904C901DA016C017D01C114C1
:1008A000D104E104F104F1F681E0E82EF12CEC0E24
:1008B000FD1EE80CF91C3E010894611C711CD50159
:1008C000C4010197A109B1096C01C818D90814C065
:1008D000F601EE0DFF1D60816A3010F4605D01C00D
:1008E000695CD101ED91FC910190F081E02DC10195
:1008F00009950894E108F1086E147F0449F7A09661
:100900000FB6F894DEBF0FBECDBFCF91DF911F9120
:100910000F91FF90EF90DF90CF90BF90AF909F909E
:100920008F907F906F905F904F903F902F900895A1
:10093000EF92FF920F931F93CF93DF93EC017A0115
:100940008B0177FF0FC0E881F9810190F081E02DE4
:100950006DE2099510950095F094E094E11CF11C6E
:10096000011D111DCE01B801A7012AE00E9400045B
:10097000DF91CF911F910F91FF90EF900895AB0100
:10098000662757FD6095762F0E9498040895629F10
:10099000D001739FF001829FE00DF11D649FE00D77
:1009A000F11D929FF00D839FF00D749FF00D659FD8
:1009B000F00D9927729FB00DE11DF91F639FB00DD7
:1009C000E11DF91FBD01CF011124089597FB092EE8
:1009D00007260AD077FD04D049D006D000201AF4AB
:1009E000709561957F4F0895F6F7909581959F4F8B
:1009F0000895A1E21A2EAA1BBB1BFD010DC0AA1F60
:100A0000BB1FEE1FFF1FA217B307E407F50720F077
:100A1000A21BB30BE40BF50B661F771F881F991FF2
:100A20001A9469F760957095809590959B01AC013B
:100A3000BD01CF01089597FB092E05260ED057FD65
:100A400004D0D7DF0AD0001C38F45095409530957B
:100A500021953F4F4F4F5F4F0895F6F79095809542
:100A6000709561957F4F8F4F9F4F0895AA1BBB1BB9
:100A700051E107C0AA1FBB1FA617B70710F0A61B9E
:100A8000B70B881F991F5A95A9F780959095BC01BF
:100A9000CD010895EE0FFF1F0590F491E02D09940C
:040AA000F894FFCFF8
:100AA400580059005A00460001000000007403C1B8
:040AB40003D903005F
:00000001FF
